:100000005EEF05F0F76A140FF66E000EF722090096
:10001000F5501200313233413435364237383943E6
:100020002A302344EA6A260EE96EEF500EE0010EF4
:10003000016E006A002EFED7012EFBD74A0E006E1D
:10004000002EFED700D0EF2EF2D712002D38F00B85
:10005000006E0F0E8C1400108C6E00008C8000D08F
:100060008C9012008350006E00380F0B016E12004E
:100070000F0E9514F009956E8C8400008C800000A2
:10008000F1DF01C02DF08C9000008C800000EADFD1
:1000900001C02CF08C900F0E9514956E2D38006ECB
:1000A000F00E001600502C10016E5CEF00F09590E1
:1000B000959295948C92DCD701C02CF001BEFBD7B1
:1000C0008C922AB08C8200008C9400008C902B388B
:1000D0002C6E0F0E2C162CC02DF0B8DF2B500F0BF2
:1000E0002C6E2D6EB3DF1200280E196E0C0E1A6ED8
:1000F000010E1B6E060E1C6E8C908C928C940F0E53
:100100009514956E9590959295940F0E266E8ADFB4
:10011000010E186E1850030808E3030E2D6E96DFCB
:10012000050E266E7FDF182AF5D7020E2D6E8EDFA4
:10013000050E266E77DF186A185003080FE3036A6E
:100140001850190FE96E000E0320EA6EEFCF1DF074
:100150002A6A1DC02BF0ABDF182AEED77BEF05F023
:100160007DEF05F0186A042A0450210855E2075073
:10017000FC0F12E2040F11EF01F0FE0E936E816E80
:100180000BD0FD0E936E816E07D0FB0E936E816EC9
:1001900003D0F70E936E816E05A009D08150F00B4D
:1001A000F00804E1059006C018F0066A34D08150CA
:1001B000F00BF0082BE08150100B02E1196A11D00E
:1001C0008150200B03E1010E196E0BD08150400BC2
:1001D00003E1020E196E05D08150800B02E1030E7F
:1001E000196E1950040DF3501B6A1A6E036A0750FA
:1001F0001A24016E1B5003220150F2CF1AF0F29E16
:1002000001DF1ABEF28E066E058005D0072A075060
:10021000040801E1076A046AFF0E936E18C001F03A
:100220001200E824F76AF7363D0FF66E020EF72249
:100230000A00F550FA6E0800F550F96E7A01820155
:100240008A0192012550D8B471D0006E2950D8B4DB
:100250006DD0002604E3810E002668E204D07F0EF4
:10026000005E64E363E026C02DF02A502D1A268E2E
:100270002A8E28502C02F4CF2FF027502B02F4CFD7
:1002800003F0F3CF2EF02C02F3502F26F4502E2241
:10029000000E032228502B02F3502F26F4502E225A
:1002A000000E026A0322022226502C02F3502E2650
:1002B000F4500322000E022226502B02F350032694
:1002C000F4500222000E016A012228502A02F35043
:1002D0002E26F4500322000E0222012227502A0269
:1002E000F3500326F4500222000E012226502A0267
:1002F000F3500226F4500122002A01BE05D02E360A
:100300000336023601360006000E2EAE0AD0032A4E
:1003100002220122015005E1025003E1035001E1F4
:10032000002A2DBE018E2DAE019E04D0006A016A06
:10033000026A036A12008E0E006E1DC001F01CC01E
:1003400002F0036A015209E102C001F0026A080EDC
:10035000005E015202E1006A08D0D89001BE04D0CC
:10036000023601360006F9D7019E1200800ED8B27F
:10037000211A266A276A1DC025F02150251A1C5013
:10038000D8B4DCD0246E006E2050D8B4E0D0245E07
:10039000D8B481D03DE321C02AF02A8E22C029F0B2
:1003A00023C028F0276AD8902A32293228322732EF
:1003B000242EF8D725AE03D02680DDD026902490B9
:1003C0002688EA6A1F0EE96EE9D0269825BE0AD073
:1003D00024A013D02A32293228322732002AD8B456
:1003E000C5D00BD02ABE0CD0D89027362836293657
:1003F0002A360006D8B4BAD0F5D7268C6BD0269C06
:100400001DC025F01DAE02D02A8EA9D02A9EA7D0ED
:1004100020C024F020C000F01C50245E1DC02AF033
:100420002A8E1EC029F01FC028F0276AD8902A32D1
:10043000293228322732242EF8D725AE03D026823F
:100440009AD026922490268AEA6A230EE96EA6D0D4
:10045000269A25BE0AD024A013D02A322932283267
:100460002732002AD8B482D00BD02ABE0CD0D89024
:100470002736283629362A360006D8B477D0F5D75D
:10048000268E28D0269E21C025F021AE02D02A8EAD
:1004900066D02A9E64D021C02AF02A8E22C029F07C
:1004A00023C028F025AE04D02A9E268464D026944A
:1004B000276A2490EA6A1F0EE96E70D025BE1CD010
:1004C0001DC025F024A006D02A3229322832273236
:1004D000002A4CE027AE0BD0282A09E1292A07E19F
:1004E0002A2A05E12A3229322832002A3FE026BC96
:1004F00086D726BEC7D71CD0800E2A1A2AAE04D0B3
:100500003AD021C025F00AD01DC025F02A5206E1BC
:10051000295204E1285202E1006A21D02ABE08D003
:10052000D8902736283629362A36002EF7D71ED0FF
:1005300025AE02D02A8E13D02A9E11D020C000F002
:1005400021C02AF022C029F023C028F008D01CC006
:1005500000F01DC02AF01EC029F01FC028F02AC0DC
:1005600001F029C002F028C003F034D0006A016A0B
:10057000026A036A2FD0276A281E291E2A1E271EF8
:10058000272A05E1282A03E1292A01E12A2A26B09F
:1005900015D726B256D726B48AD7B3D7EF50282618
:1005A00005E3292A03E12A2AD8B42480ED52EF502A
:1005B000292603E32A2AD8B42480ED52EF50EFBE57
:1005C00001D0800A2A26D8B0248026B8FED626BAC2
:1005D0003FD774D71200272C01D003D0400E286ECD
:1005E00001D0286A010E265C282628508009296E31
:1005F0002A6A2B6E5CDD12001F50016A1E5C03E24A
:100600001EC000F00CD0006A080E206E1E360036A8
:100610001F50005CD8B0006E0136202EF7D71200B4
:100620002550070A07E00B0A0AE0060A10E0020A52
:1006300014E018D0010E266E276ECDDF18D02A6A7E
:10064000010E2B6E34DD020E266EECDC10D0010E96
:10065000266E020E276EBFDF0AD02A6A100E2B6E9E
:1006600026DD05D0010E2A6E25C02BF020DD1200FC
:10067000200E19A8300E1A6E18C000F018AE08D05F
:10068000001E002A00C018F02D0E1A6E198E198057
:10069000015018C01EF0640E1F6EAEDF00C018F0CF
:1006A000300E01241B6E18C01EF00A0E1F6EA4DF50
:1006B000300E00241D6E300E01241C6E1AC000F096
:1006C000300E1B5C04E0198219BE198412D01AC0C6
:1006D0001BF0200E1A6E300E1C5C04E0198019BE4F
:1006E000198207D0D8A4198004E11BC01CF0200E89
:1006F0001B6E19B405D019B206D019B007D009D0B5
:100700001AC025F08DDF1BC025F08ADF1CC025F044
:1007100087DF1DC025F084DF12002550B608256E46
:10072000036A26C029F0268ED89026322732283236
:100730000332023201320032252EF6D729AE0BD019
:10074000001E011E021E031E002AD8B4012AD8B4BE
:10075000022AD8B4032A1BEF04F0D8B203D0EA6A05
:100760002D0EE96E006A016A026A036A2D6A2E6A1A
:100770002F6A306A2C502B102A1029102CE0200EE2
:10078000316ED89025362636273628362D362E3629
:100790002F3630362C50305C08E12B502F5C05E1B1
:1007A0002A502E5C02E129502D5C0FE329502D5E6A
:1007B0002A50D8A02A3C2E5E2B50D8A02B3C2F5E6E
:1007C0002C50D8A02C3C305ED88000360136023642
:1007D0000336312ED6D72DC0EFFF2EC0ECFF2FC031
:1007E000ECFF30C0ECFF1200E9501D6E1C501F6E74
:1007F00019E01BC028F01AC027F019C026F018C055
:1008000025F02C6A2B6A200E2A6E820E296E1ADDC4
:1008100003C01BF002C01AF001C019F000C018F0AC
:100820001F2EE7D71BC028F01AC027F019C026F0EA
:1008300018C025F072D703C01BF002C01AF001C027
:1008400019F000C018F01BAE0DD01D061D8A181E31
:10085000191E1A1E1B1E182AD8B4192AD8B41A2A0F
:10086000D8B41B2A3B0E246E9A0E236ECA0E226E3B
:10087000216A0A0E1F6E1C50D8B41D2AD882EA6A5B
:10088000180EE96E1BC028F01AC027F019C026F018
:1008900018C025F024C02CF023C02BF022C02AF071
:1008A00021C029F05ADF015000520FE11C281F5CC3
:1008B0000CE01D500CE00F0B1F5C01E037E21DBE89
:1008C00035D01DBC04D0200E2DD0200E1D161DAA23
:1008D0000CD01D9A1C50D8A41D0600501D6E2D0E64
:1008E000256E9EDE1D50006E1D6A1C501F5C0AE1C5
:1008F00000501D6E2E0E256E93DE1D50006E200ED4
:100900001D16000E300E1DAA0DD01D9A1C50D8A425
:100910001D0600501D6E2D0E256E82DE1D50006ED0
:100920001D6A300E002600C025F07ADED89224C061
:1009300028F023C027F022C026F021C025F02C6A21
:100940002B6A2A6A0A0E296E08DF03C024F002C04F
:1009500023F001C022F000C021F01F2E8FD712001B
:100960001850D8B4A5D0246E1C50D8B4A1D0245EA1
:1009700005E37F0E2426D8B09BD006D0810E245EDE
:10098000D8A096D0D8B494D024C000F0016A026AEE
:10099000036A236A19C022F0228E1AC021F01BC0FC
:1009A00020F0190E246E1F50205E0DE2010E215E14
:1009B0000AE2225E08E2235E06E2232A222A212A94
:1009C0001F50202628D01E50215E12E2010E225E0A
:1009D0000FE2235E0DE2232A222A1E5021261F50F9
:1009E000202619E3212A17E1222A15E1232A13D010
:1009F0001D508009225E0EE2010E235E0BE2232AC7
:100A00001D50800922261E502126E9E3222AE7E113
:100A1000232AE5D70380242E01D00BD0D89020368E
:100A2000213622362336D890033602360136253653
:100A3000BAD725A006D0D89001320232033225322F
:100A400002D0000635E025BE1ED0D89020362136D3
:100A5000223623361F50205E07E2010E215E04E29B
:100A6000225E02E2235E1AE31E50215E05E2010EC1
:100A7000225E02E2235E12E31D508009225E03E241
:100A8000010E235E0BE3032A09E1022A07E1012A92
:100A900005E1002A0DE001320232033219C024F0D0
:100AA0001D50241A24AE02D0018E06D0019E04D01F
:100AB000006A016A026A036AA3EF08F0F86AD09E2E
:100AC000086A096A0D6A0C6A0B6A0A6A116A106A76
:100AD0000F6A0E6A156A146A136A126AC150C00B53
:100AE0000F09C16E070EB46E0590046A0590066A80
:100AF000076A74EF00F0B0EF00F0F19EB2EC00F086
:100B000001C016F0300E165C176E165259E01650E2
:100B1000440856E016502A0853E01650410850E0A9
:100B2000165042084DE0165043084AE0165023087C
:100B300047E00DC028F00CC027F00BC026F00AC01B
:100B400025F02C6A2B6A200E2A6E820E296E22EC6A
:100B500001F003C01BF002C01AF001C019F000C080
:100B600018F01D6A17C01CF09BEC01F0D8921BC056
:100B70001FF01AC01EF019C01DF018C01CF003C0F1
:100B800023F002C022F001C021F000C020F0B6EC3A
:100B900001F003C00DF002C00CF001C00BF000C06A
:100BA0000AF0082A08C026F0010E276E14DD17C0CF
:100BB00018F0180E196E5CDD050E266E12EC00F0B2
:100BC00016502A0810E1086A0D6A0C6A0B6A0A6A54
:100BD000116A106A0F6A0E6A156A146A136A126A39
:100BE0000C0E256E1DDD16504408D8A4B3D0082A7B
:100BF000010E096E2B0E256E13DDB2EC00F001C064
:100C000016F0300E165C176E165259E01650440856
:100C100056E016502A0853E01650410850E016508E
:100C200042084DE0165043084AE01650230847E0BA
:100C300011C028F010C027F00FC026F00EC025F01C
:100C40002C6A2B6A200E2A6E820E296E22EC01F08D
:100C500003C01BF002C01AF001C019F000C018F068
:100C60001D6A17C01CF09BEC01F0D8921BC01FF04E
:100C70001AC01EF019C01DF018C01CF003C023F0EC
:100C800002C022F001C021F000C020F0B6EC01F05B
:100C900003C011F002C010F001C00FF000C00EF050
:100CA000082A08C026F0010E276E95DC17C018F040
:100CB000180E196EDDDC050E266E12EC00F01650D3
:100CC000230831E1D8920DC01FF00CC01EF00BC0FC
:100CD0001DF00AC01CF011C023F010C022F00FC09C
:100CE00021F00EC020F0B6EC01F003C015F002C0F8
:100CF00014F001C013F000C012F0010E266E020EB7
:100D0000276E69DC890EE96E15C01BF014C01AF05D
:100D100013C019F012C018F0020E1C6E65DD050E2E
:100D2000266E12EC00F016502A0811E1096A086AD2
:100D30000D6A0C6A0B6A0A6A116A106A0F6A0E6AF7
:100D4000156A146A136A126A0C0E256E69DC092C86
:100D500001D053D716504308D8A4B6D0082A010EA4
:100D6000096E2D0E256E5CDCB2EC00F001C016F0B1
:100D7000300E165C176E16525AE01650440857E0B3
:100D800016502A0854E01650410851E01650420807
:100D90004EE0165043084BE01650230848E011C0BF
:100DA00028F010C027F00FC026F00EC025F02C6AE6
:100DB0002B6A200E2A6E820E296E22EC01F003C0EF
:100DC0001BF002C01AF001C019F000C018F01D6A33
:100DD00017C01CF09BEC01F0D8921BC01FF01AC08A
:100DE0001EF019C01DF018C01CF003C023F002C093
:100DF00022F001C021F000C020F0B6EC01F003C0E9
:100E000011F002C010F001C00FF000C00EF0082A6F
:100E100008C026F0010E276EEBEC02F017C018F0A8
:100E2000180E196E25DC050E266E12EC00F0165019
:100E3000230832E1D8820DC01FF00CC01EF00BC099
:100E40001DF00AC01CF011C023F010C022F00FC02A
:100E500021F00EC020F0B6EC01F003C015F002C086
:100E600014F001C013F000C012F0010E266E020E45
:100E7000276EEBEC02F0890EE96E15C01BF014C072
:100E80001AF013C019F012C018F0020E1C6EACDC80
:100E9000050E266E12EC00F016502A0812E1096ABF
:100EA000086A0D6A0C6A0B6A0A6A116A106A0F6A8C
:100EB0000E6A156A146A136A126A0C0E256E10EC1B
:100EC00003F0092C01D050D716504208D8A4B8D04E
:100ED000082A010E096E780E256E10EC03F0B2ECB4
:100EE00000F001C016F0300E165C176E16525BE073
:100EF0001650440858E016502A0855E0165041088C
:100F000052E0165042084FE0165043084CE016508D
:100F1000230849E011C028F010C027F00FC026F0C8
:100F20000EC025F02C6A2B6A200E2A6E820E296EC6
:100F300022EC01F003C01BF002C01AF001C019F04E
:100F400000C018F01D6A17C01CF09BEC01F0D8928D
:100F50001BC01FF01AC01EF019C01DF018C01CF0F5
:100F600003C023F002C022F001C021F000C020F035
:100F7000B6EC01F003C011F002C010F001C00FF098
:100F800000C00EF0082A08C026F0010E276EEBEC18
:100F900002F017C018F0180E196E38EC03F0050EA9
:100FA000266E12EC00F01650230832E10DC028F036
:100FB0000CC027F00BC026F00AC025F011C02CF0A1
:100FC00010C02BF00FC02AF00EC029F022EC01F067
:100FD00003C015F002C014F001C013F000C012F0FD
:100FE000010E266E020E276EEBEC02F0890EE96E02
:100FF00015C01BF014C01AF013C019F012C018F07D
:10100000020E1C6EF4EC03F0050E266E12EC00F0DE
:1010100016502A0812E1096A086A0D6A0C6A0B6AFE
:101020000A6A116A106A0F6A0E6A156A146A136AEC
:10103000126A0C0E256E10EC03F0092C01D04FD76C
:1010400016504108D8A4B7D0082A010E096E2F0EF9
:10105000256E10EC03F0B2EC00F001C016F0300E7B
:10106000165C176E16525BE01650440858E0165096
:101070002A0855E01650410852E0165042084FE049
:10108000165043084CE01650230849E011C028F0E0
:1010900010C027F00FC026F00EC025F02C6A2B6A76
:1010A000200E2A6E820E296E22EC01F003C01BF086
:1010B00002C01AF001C019F000C018F01D6A17C074
:1010C0001CF09BEC01F0D8921BC01FF01AC01EF060
:1010D00019C01DF018C01CF003C023F002C022F09C
:1010E00001C021F000C020F0B6EC01F003C011F007
:1010F00002C010F001C00FF000C00EF0082A08C0B6
:1011000026F0010E276EEBEC02F017C018F0180E57
:10111000196E38EC03F0050E266E12EC00F0165036
:10112000230831E10DC01BF00CC01AF00BC019F000
:101130000AC018F011C01FF010C01EF00FC01DF043
:101140000EC01CF00DD403C015F002C014F001C095
:1011500013F000C012F0010E266E020E276EEBECAB
:1011600002F0890EE96E15C01BF014C01AF013C00E
:1011700019F012C018F0020E1C6EF4EC03F0050E0C
:10118000266E12EC00F016502A0812E1096A086A6D
:101190000D6A0C6A0B6A0A6A116A106A0F6A0E6A93
:1011A000156A146A136A126A0C0E256E10EC03F0AD
:0A11B000092C01D050D7A2D403008F
:020000040030CA
:0E0000003FCC3E1E0087A1000FC00FE00F4056
:00000001FF
;PIC18F4550
;CRC=034B  CREATED="29-oct.-20 17:46"
